:100000000C9434000C9451000C9451000C94510049
:100010000C9451000C9451000C9451000C9451001C
:100020000C9451000C9451000C9451000C9451000C
:100030000C9451000C9451000C9451000C945100FC
:100040000C9451000C9451000C9451000C945100EC
:100050000C9451000C9451000C9451000C945100DC
:100060000C9451000C94510011241FBECFEFD8E026
:10007000DEBFCDBF14E0A0E0B1E0E0E0F1E102C0FE
:1000800005900D92A236B107D9F724E0A2E6B4E0BC
:1000900001C01D92A838B207E1F70E9429040C9410
:1000A0007E080C9400002A9A8091620482608093FA
:1000B000620408952B9A80916204846080936204A4
:1000C00008952C9A80916204886080936204089558
:1000D0001092C50087E68093C40088E18093C10038
:1000E00086E08093C20008959091C00095FFFCCFF8
:1000F0008093C6000895CF93DF93EC01888181112E
:1001000003C0DF91CF91089521960E947400F6CF2D
:100110008091C00087FFFCCF8091C600089580E4E5
:1001200080937C0083E880937A00089590917C000E
:100130008F70907F892B80937C0080917A008064FF
:1001400080937A0080917A0086FDFCCF80917800C0
:100150009091790008950F931F93CF93DF9300D070
:1001600000D00F92CDB7DEB79F938F9380E091E0E0
:100170009F938F938E010F5F1F4F1F930F930E94CA
:100180008605C8010E947B000F900F900F900F9082
:100190000F900F900F900F900F900F900F90DF9196
:1001A000CF911F910F910895299A2FEF83ED90E33E
:1001B000215080409040E1F700C000002998089548
:1001C000209A289A81E0809363041092640482EF5D
:1001D00091E00E947B000C94D400299A2FEF89E6CD
:1001E00098E1215080409040E1F700C0000029983C
:1001F000089581E480937C0080917A0080648093EC
:100200007A0080917A0086FDFCCF60917800709131
:10021000790080E090E00E9459042AE038E240EA48
:100220005BE30E94BF04089582E480937C00809188
:100230007A00806480937A0080917A0086FDFCCFFA
:10024000609178007091790080E090E00E945904FC
:100250002AE038E240EA5BE30E94BF04089583E4A9
:1002600080937C0080917A00806480937A008091F2
:100270007A0086FDFCCF609178007091790080E073
:1002800090E00E9459042AE038E240EA5BE30E94D1
:10029000BF040895892B11F00C9453002A98809183
:1002A00062048D7F809362040895892B11F00C9471
:1002B0005A002B98809162048B7F8093620408958A
:1002C000892B11F00C9461002C9880916204877F37
:1002D000809362040895892B11F00C94E000289813
:1002E00010926304109264048BE092E00E947B0001
:1002F0000C94ED0083E091E00E947B0086E692E0A2
:100300000E947B0088E191E00E947B000C94E00059
:100310008DE291E00E947B008BE491E00E947B00E3
:1003200082E691E00C947B00CF93DF9384E691E02A
:100330000E947B0082E691E00E947B00D8E00E9450
:100340008800C82F0E947400E0916504CD3011F040
:10035000CA30A1F5F0E0EA59FB4F10821092650413
:1003600086E692E00E947B0061EA71E086E694E016
:100370000E947D05892B49F481E0809386041092C8
:100380008704DF91CF910C94880168EA71E086E6DA
:1003900094E00E947D05892B41F41092860410920E
:1003A0008704DF91CF910C94E00082EB91E00E94F2
:1003B0007B0082E691E00E947B00C1CFEF3110F01C
:1003C000CF37E9F081E08E0F80936504F0E0EA59C1
:1003D000FB4FC083C83019F0CF3709F0B0CFE82FFA
:1003E000F0E0EA59FB4FD0839EEF980F909365049D
:1003F0008150E82FF0E0EA59FB4FD083A0CF8E2F39
:10040000EECFCF93DF9300D000D0CDB7DEB70E9400
:10041000880089830E947400E091650489818D3091
:1004200019F08A3009F05CC1F0E0EA59FB4F108204
:100430001092650486E692E00E947B0063ED71E015
:1004400086E694E00E947D05892B09F08CC08AED38
:1004500091E00E947B008091630490916404892B59
:1004600009F46CC08FEE91E00E947B0080916204E1
:1004700081FF6AC082E292E00E947B000E94F90044
:1004800069837A838B839C838AE392E00E947B005A
:1004900020E030E040E850E469817A818B819C81E2
:1004A0000E94540418160CF44CC089E492E00E9497
:1004B0007B008091620482FF4DC082E892E00E943E
:1004C0007B000E94140169837A838B839C838AE377
:1004D00092E00E947B0020E030E040E850E4698137
:1004E0007A818B819C810E945404181684F189E4DE
:1004F00092E00E947B008091620483FF31C083EB15
:1005000092E00E947B000E942F0169837A838B8393
:100510009C838AE392E00E947B0020E030E040E888
:1005200050E469817A818B819C810E945404181661
:10053000A4F089E492E00E947B0045C088E092E04C
:1005400093CF84E592E0B3CF89E692E0B0CF84E523
:1005500092E0CFCF8AE992E0CCCF84E592E0EBCF76
:100560008BEC92E0E8CF64EE72E086E694E00E94C5
:100570007D05892B99F489EE92E00E947B0084EF3F
:1005800092E00E947B0084E093E00E947B008DE07B
:1005900093E00E947B0082E293E0CDCF6EE273E0B5
:1005A00086E694E00E947D05892BB9F4209A289A6A
:1005B00081E0809363041092640482EF91E00E94D2
:1005C0007B000E94D40082E691E00F900F900F9084
:1005D0000F90DF91CF910C947B0066E373E086E689
:1005E00094E00E947D05892B61F4289810926304A1
:1005F000109264048BE092E00E947B000E94ED0068
:10060000E2CF6EE373E086E694E00E947D050097FA
:1006100029F40E944A018CE692E08DCF65E473E0F4
:1006200086E694E00E947D05892B29F40E94530000
:1006300085E292E080CF6CE473E086E694E00E946D
:100640007D05009729F40E9455018DE992E073CF52
:1006500063E573E086E694E00E947D05892B29F42A
:100660000E945A0085E892E066CF6AE573E086E66C
:1006700094E00E947D05009729F40E9460018EECB1
:1006800092E059CF61E673E086E694E00E947D0532
:10069000892B29F40E94610086EB92E04CCF68E63A
:1006A00073E086E694E00E947D05892B59F48DE67F
:1006B00093E00E947B0082E290E00E94AB0084E71E
:1006C00093E039CF69E773E086E694E00E947D0508
:1006D000892B19F481E893E02ECF81EA93E02BCFA8
:1006E000EF3118F099819F3721F181E08E0F8093CF
:1006F0006504F0E0EA59FB4F99819083983011F03E
:100700009F3781F4E82FF0E0EA59FB4F98E090839F
:100710002EEF280F209365048150E82FF0E0EA596E
:10072000FB4F90830F900F900F900F90DF91CF9120
:1007300008958E2FE7CFCF93DF93CDB7DEB72C97F9
:100740000FB6F894DEBF0FBECDBF0E94F9006983DB
:100750007A838B839C830E9414016D837E838F83B5
:1007600098870E942F0169877A878B879C8720E072
:1007700030E040E850E469817A818B819C810E945D
:10078000BA041816A4F484EB93E00E947B0080E086
:1007900090E00E944A018CE692E00E947B008BED83
:1007A00093E00E947B0088E191E00E947B0020E0C2
:1007B00030E040E850E46D817E818F8198850E9411
:1007C000BA041816A4F48FEF93E00E947B0080E037
:1007D00090E00E9455018DE992E00E947B008BED34
:1007E00093E00E947B0088E191E00E947B0020E082
:1007F00030E040E850E469857A858B859C850E94CD
:10080000BA041816A4F486E294E00E947B0080E00B
:1008100090E00E9460018EEC92E00E947B008BEDE4
:1008200093E00E947B0088E191E00E947B002FEF23
:1008300083ED90E3215080409040E1F700C000003C
:100840002C960FB6F894DEBF0FBECDBFDF91CF91CF
:1008500008950E9468000E948F008DE494E00E9439
:100860007B00219A229A239A249A3998419887E802
:1008700080937A000E94940180918604909187046D
:10088000892B31F40E9453000E945A000E9461009B
:100890008091860490918704892B19F00E940102AF
:1008A000F7CF0E949B03F4CF0E94960408F481E0E6
:1008B0000895E89409C097FB3EF490958095709553
:1008C00061957F4F8F4F9F4F9923A9F0F92F96E99C
:1008D000BB279395F695879577956795B795F11111
:1008E000F8CFFAF4BB0F11F460FF1BC06F5F7F4FAE
:1008F0008F4F9F4F16C0882311F096E911C07723C0
:1009000021F09EE8872F762F05C0662371F096E8C8
:10091000862F70E060E02AF09A95660F771F881F97
:10092000DAF7880F9695879597F90895990F00083B
:10093000550FAA0BE0E8FEEF16161706E807F907B1
:10094000C0F012161306E407F50798F0621B730B4C
:10095000840B950B39F40A2661F0232B242B252BCD
:1009600021F408950A2609F4A140A6958FEF811D70
:10097000811D08950E94960408F48FEF08950E9447
:10098000D2040C9443050E94350538F00E943C05C2
:1009900020F0952311F00C942C050C9432051124B1
:1009A0000C9477050E94540570F3959FC1F3950F41
:1009B00050E0551F629FF001729FBB27F00DB11DE3
:1009C000639FAA27F00DB11DAA1F649F6627B00D73
:1009D000A11D661F829F2227B00DA11D621F739F5C
:1009E000B00DA11D621F839FA00D611D221F749F6A
:1009F0003327A00D611D231F849F600D211D822FB1
:100A0000762F6A2F11249F5750409AF0F1F08823D7
:100A10004AF0EE0FFF1FBB1F661F771F881F915004
:100A20005040A9F79E3F510580F00C942C050C9482
:100A300077055F3FE4F3983ED4F386957795679505
:100A4000B795F795E7959F5FC1F7FE2B880F911D2E
:100A50009695879597F9089597F99F6780E870E0D4
:100A600060E008959FEF80EC089500240A94161624
:100A7000170618060906089500240A94121613068C
:100A8000140605060895092E0394000C11F488231A
:100A900052F0BB0F40F4BF2B11F460FF04C06F5F36
:100AA0007F4F8F4F9F4F089557FD9058440F551F0C
:100AB00059F05F3F71F04795880F97FB991F61F0E0
:100AC0009F3F79F087950895121613061406551F57
:100AD000F2CF4695F1DF08C0161617061806991FC3
:100AE000F1CF86957105610508940895E894BB27B8
:100AF00066277727CB0197F90895FB01DC018D91DB
:100B0000019080190110D9F3990B0895AEE0B0E07F
:100B1000ECE8F5E00C94570886E08C832B893C893F
:100B200029833A838FEF9FE78D839E83AE01495ED1
:100B30005F4F6D897E89CE0101960E94AA05EF81E3
:100B4000F8852B893C89E20FF31F10822E96E2E094
:100B50000C947308ABE0B0E0E0EBF5E00C944A08CD
:100B60006C017B018A01FC0116821782838181FF5F
:100B7000DFC13AE0532EF6012381F70123FD859171
:100B800023FF81917F01811509F437C1853239F442
:100B900023FD959123FF91917F01953229F4B601B0
:100BA00090E00E94B107E7CF30E0912C612C712CCE
:100BB000F0E27F1640F59B32D9F058F49032D1F034
:100BC0009332F1F09E3291F576FC17C1689476F875
:100BD00006C09D3291F09033C1F4689470F8F7012B
:100BE00023FD959123FF91917F019111E1CF28C0C1
:100BF000689471F8689472F8F2CF689473F8EFCF44
:100C0000689474F8ECCF77FC1BC080ED890F8A30B4
:100C1000C8F676FE05C0959C800D1124982EDFCF76
:100C2000659C800D1124682E7F2AD9CF9C3619F43B
:100C3000689477F8D4CF9C3409F445C0983679F29B
:100C4000892F8F7D8554833008F43FC0933609F493
:100C500061C0933709F46BC0933509F477C09436BB
:100C600019F0993609F0A4C0F80177FE9AC0619195
:100C70007191819191918F01272D2F76822E97FF6F
:100C800004C00E943F08689487F82AE030E05E01C3
:100C90004FEFA41AB40AA5010E94E107782E7A1832
:100CA00086FECFC0882D8E7F791408F0C9C084FEDF
:100CB0001DC182FC11C12EEE8222B92C882D8678AE
:100CC00009F4CBC00EC131E08ACF311501F1085FC4
:100CD0001F4F8FE3898321E0822E912C5E012FEF3D
:100CE000A21AB20AE89477F873FC03C08614910440
:100CF000F0F18114910409F041C0611409F43BCF73
:100D0000B60180E290E00E94B1076A94F6CF0C5FD2
:100D10001F4FDFCFF801808189830E5F1F4F91E065
:100D2000892E912C5E01FFEFAF1ABF0ADBCFF801CD
:100D3000A190B1908F01692D70E076FC02C06FEF39
:100D40007FEFC5010E94A6074C01CCCFF801A1900E
:100D5000B1908F01692D70E076FC02C06FEF7FEFDC
:100D6000C5010E949B074C01689477F8BDCFB6017E
:100D700080E290E00E94B1076A94B8CFF50177FC59
:100D8000859177FE81915F01B60190E00E94B107E5
:100D900081E0611001C080E0681AF1E08F1A9108CB
:100DA000A8CF61917191872F880F880B982F63CFFF
:100DB0009537C9F4872CE89484F82AE030E0F801EC
:100DC00087FE39C061917191819191918F015E018E
:100DD000FFEFAF1ABF0AA5010E94E107782E7A182B
:100DE000E89487F85DCF872D897F882E903799F01A
:100DF00058F49835A9F09F36D9F0F601868197818D
:100E00002B96EFE00C9466089837B9F774FC05C090
:100E100020E130E0D4CF689484F8689482F8F8CF69
:100E200074FE03C0E72DE6608E2E20E132E0C7CFCE
:100E300028E030E0C4CF6191719180E090E0C6CFAE
:100E4000882EB72C84FE3ACFFE01E70DF11D80817C
:100E5000803309F044C049EE842283FC0EC080FE3A
:100E600051C0972CB61418F4960C9B18B62C862DEE
:100E70008B196B1408F480E0B80EB61408F044C067
:100E80006B1884FE43C0B60180E390E00E94B10776
:100E900082FE09C088E590E081FC02C088E790E00E
:100EA000B6010E94B1077914E0F15E018FEFA81A34
:100EB000B80A7A9482E0882E912C8C0E9D1E870CA5
:100EC000911CF40182914F01B60190E00E94B1079C
:100ED0008A149B04B1F711CFB92C882EB5CF82FCB0
:100EE00002C0B394BACFB394B394B7CFB92C882EC1
:100EF000E5CEB60180E290E00E94B107A394A6146B
:100F0000C0F3B5CFAB2CFBCF612CBBCF882D86783F
:100F100051F280E281FC8BE287FC8DE2B60190E029
:100F2000C0CFB60180E390E00E94B1079A94BBCF96
:100F30008FEF9FEF65CFFC0105906150704001106D
:100F4000D8F7809590958E0F9F1F0895FC016150F2
:100F5000704001900110D8F7809590958E0F9F1FDB
:100F600008950F931F93CF93DF93182F092FEB0151
:100F70008B8181FD09C00FEF1FEF812F902FDF9133
:100F8000CF911F910F91089582FF14C02E813F8150
:100F90008C819D81281739073CF4E881F981CF01C4
:100FA00001968883998310838E819F8101968E8319
:100FB0009F83E3CFE885F985812F0995892BA1F3DC
:100FC000DACFFA01AA27283051F1203181F1E894D3
:100FD0006F936E7F6E5F7F4F8F4F9F4FAF4FB1E02C
:100FE0003ED0B4E03CD0670F781F891F9A1FA11D27
:100FF000680F791F8A1F911DA11D6A0F711D811D28
:10100000911DA11D20D009F468943F912AE0269FEC
:1010100011243019305D3193DEF6CF010895462F4B
:101020004770405D4193B3E00FD0C9F7F6CF462F2C
:101030004F70405D4A3318F0495D31FD4052419395
:1010400002D0A9F7EACFB4E0A69597958795779552
:101050006795BA95C9F700976105710508959B01D9
:10106000AC010A2E06945795479537952795BA9562
:10107000C9F7620F731F841F951FA01D08959095D7
:101080008095709561957F4F8F4F9F4F08952F9258
:101090003F924F925F926F927F928F929F92AF9208
:1010A000BF92CF92DF92EF92FF920F931F93CF9355
:1010B000DF93CDB7DEB7CA1BDB0B0FB6F894DEBFEC
:1010C0000FBECDBF09942A88398848885F846E8412
:1010D0007D848C849B84AA84B984C884DF80EE805C
:1010E000FD800C811B81AA81B981CE0FD11D0FB665
:1010F000F894DEBF0FBECDBFED010895F894FFCF89
:101100002564002D2D4155544F4D41544943204DE8
:101110004F44452D2D0D0A00535441545553205032
:10112000454E44494E472E2E2E2E0D0A002D2D2DB4
:101130004D414E55414C204D4F444520414354496B
:1011400056415445442D2D2D0D0A0054595045202B
:101150002748454C502720464F522048454C500DBB
:101160000A00240054595045204155544F4D4154D4
:10117000494320464F52204155544F4D4154494315
:10118000204D4F4445202D204D414E55414C204689
:101190004F52204D414E55414C204D4F44450D0A74
:1011A000004D414E55414C004155544F4D4154491D
:1011B0004300504C4541534520454E544552205420
:1011C000484520434F5252454354205155455259AA
:1011D0000D0A00535441545553004F4B3A20535974
:1011E0005354454D2052554E4E494E470D0A00204E
:1011F0002D20504F574552204D4F4445202D204F14
:101200004E4C494E450D0A00202D20504F57455257
:10121000204D4F4445202D204F46464C494E450D0C
:101220000A00202D205345474D454E542031202D96
:10123000204F4E4C494E450D0A00202D20090956DD
:101240004F4C544147453A2000204E4F4D494E41A6
:101250004C0D0A0057524E473A204F564552564FB2
:101260004C54414745210D0A00202D205345474D40
:10127000454E542031202D204F46464C494E450DB9
:101280000A00202D205345474D454E542032202D35
:10129000204F4E4C494E450D0A00202D2053454706
:1012A0004D454E542032202D204F46464C494E4548
:1012B0000D0A00202D205345474D454E5420332024
:1012C0002D204F4E4C494E450D0A00202D205345F0
:1012D000474D454E542033202D204F46464C494E15
:1012E000450D0A0048454C50002D2053544154559B
:1012F000530D0A002D20504F574552205B307C3152
:101300005D0D0A002D2054454D500D0A002D20532F
:1013100045475B317C327C335D205B307C315D0D39
:101320000A002D20435245444954530D0A00504FA2
:10133000574552203100504F5745522030005345F9
:101340004731203000534547312031005345473263
:101350002030005345473220310053454733203079
:10136000005345473320310054454D500054454DFE
:10137000503A200020430D0A00435245444954533B
:101380000050524F4752414D4D4544204259204A4A
:10139000414E205445534B455245445A49430D0A4A
:1013A000004552523A20554E4B4E4F574E20434D1A
:1013B000440D0A005345474D454E542031202D2001
:1013C0004F564552564F4C54414745202E2E2044EF
:1013D000495341424C494E470D0A00504C45415338
:1013E0004520434F4E54414354205A4F4E452041CF
:1013F000444D494E4953545241544F520D0A0053E3
:1014000045474D454E542032202D204F56455256CB
:101410004F4C54414745202E2E2044495341424CC5
:10142000494E470D0A005345474D454E5420332041
:101430002D204F564552564F4C54414745202E2E95
:101440002044495341424C494E470D0A002D2D2D51
:1014500053434144412052454144592D2D2D0D0AFD
:0214600000008A
:00000001FF
